:020000040000FA
:0A00000002082697DE7597ADD2AF17
:10000B00020BD78E4E8F4F8B508A5189528D827F28
:0F001B0069AD4FAB828550568A5789580206CC83
:03002B0002091BAC
:1000330002078F8F418D42E54260057542FF8003C1
:10004300E4F5427F80120C708F43E54104FF120BED
:10005300578F44E4FF74452FF8A6420FBF10F6E410
:0E006300F555F556FB7A0079437D14020ADD4F
:10007300020D27E54F2443F8E6054F227840300769
:10008300027843E475F0011205A70203D22000EBC6
:100093007F2ED2008018EF540F2490D43440D4FF25
:1000A30030040BEF24BFB41A0050032461FFE55062
:1000B300600215500553E5537002055230070D7861
:1000C30040E475F0011205A7EF0204C7020C0074A7
:1000D30003D2078003E4C207F54F8B408A4189426C
:1000E300E4F550F552F553E55060077F201200B157
:1000F30080F57551FFC201C200C202C203C205C22C
:1001030006C20812007FFF700D3007057F00120042
:10011300C2AF53AE5222B4255FC2D5C20412007FD0
:10012300FF24D0B40A00501A75F00A785030D50570
:1001330008B6FF0106C6A426F620D5047002D20332
:1001430080D924CFB41A00EF5004C2E5D2040202CE
:10015300C2D20180C6D20080C0D20280BCD2D58078
:10016300BAD20580B47F201200B12002077401B512
:10017300500040F1120076FF1200B10200EAD208EB
:10018300D2068095120076FB120076FA120076F9F9
:100193004A4B700679937A037BFF20022EE5506069
:1001A3002A7E008E827583001203EB60060EEE65D5
:1001B3005170F0C2D5EBC0E0EAC0E0E9C0E0EE1256
:1001C3000309D0E0F9D0E0FAD0E0FB1203D2FF60DC
:1001D300AAEBC0E0EAC0E0E9C0E01200B1D0E0243D
:1001E30001F9D0E03400FAD0E0FBE5510460DCD53E
:1001F30051D980877BFF7A037905D202809C7910DD
:1002030080027908C206C2088008D2D5790A800420
:10021300790AC2D5E551047002F551E4FAFDFEFFF7
:10022300120076FC7B08200113120076FD7B103050
:10023300000A120076FE120076FF7B20EC3382D593
:1002430092D55013C3E43000069FFFE49EFEE420E2
:1002530001039DFDE49CFCE4CBF8C201EC700CCFE0
:10026300CECDCCE824F8F870F38017C3EF33FFEE5C
:1002730033FEED33FDEC33FCEB33FB994002FB0F14
:10028300D8E9EB300105F8D0E0C448B201C0E00A78
:10029300EC4D4E4F78207B0070C2EAB5510040BC54
:1002A300C0E012030BD0F0D0E0200104C4C0E0C4CE
:1002B300B201C0F012009AD0F0D5F0EB0200EA12BE
:1002C30005B701875302015801584C0154420205F6
:1002D3004F020D44020D49016D4302135501F746C8
:1002E30001F74501F74703B350015C2D01602E016F
:1002F300832B016423018120039C2A011C480000F5
:10030300017B3F3F3F00790AA2D520031430050942
:10031300B910020404B9080104A2D5200602500151
:10032300042002689202B550005034C0E07F2030B0
:1003330003197F30A20272067205500F120362C2C4
:1003430002C206C205C2087F30800F300503E9C030
:10035300E01200B1300503D0E0F9D0E0B550CC3065
:1003630005177F30B9100C1200B17F583004077F96
:10037300788003B908031200B13002057F2D020013
:10038300B17F202008F87F2B2006F322920280CF32
:10039300286E756C6C2900D2011200763001F8C208
:1003A30001785030D50108F602011C2D50434958FD
:1003B3001200762403B405004001E49003AE9312C7
:1003C30000A2743A1200A2D203755004020201BBC8
:1003D300010689828A83E0225002E722BBFE02E300
:1003E3002289828A83E49322BB010CE58229F58268
:1003F300E5833AF583E0225006E92582F8E622BB3D
:10040300FE06E92582F8E222E58229F582E5833AB0
:10041300F583E49322BC000BBE0029EF8DF084FF2B
:10042300ADF022E4CCF875F008EF2FFFEE33FEECCD
:1004330033FCEE9DEC984005FCEE9DFE0FD5F0E9F4
:10044300E4CEFD22EDF8F5F0EE8420D21CFEADF0F3
:1004530075F008EF2FFFED33FD4007985006D5F0F8
:10046300F222C398FD0FD5F0EA22C2D5EC30E7099A
:10047300B2D5E4C39DFDE49CFCEE30E715B2D5E4B0
:10048300C39FFFE49EFE120418C3E49DFDE49CFC9D
:10049300800312041830D507C3E49FFFE49EFE22B5
:1004A300E8600FECC313FCED13FDEE13FEEF13FF37
:1004B300D8F122F5F0C582A4C582C5F0C583A42571
:1004C30083F58322BB010689828A83F0225002F7D7
:1004D30022BBFE01F32275F008758200EF2FFFEEB9
:1004E30033FECD33CDCC33CCC58233C5829BED9A5D
:1004F300EC99E58298400CF582EE9BFEED9AFDECBB
:1005030099FC0FD5F0D6E4CEFBE4CDFAE4CCF9A800
:100513008222B800C1B90059BA002DEC8BF084CF08
:10052300CECDFCE5F0CBF97818EF2FFFEE33FEEDDF
:1005330033FDEC33FCEB33FB10D703994004EB9909
:10054300FB0FD8E5E4F9FA227818EF2FFFEE33FE1C
:10055300ED33FDEC33FCC933C910D7059BE99A4051
:1005630007EC9BFCE99AF90FD8E0E4C9FAE4CCFB69
:100573002275F010EF2FFFEE33FEED33FDCC33CCBD
:10058300C833C810D7079BEC9AE899400AED9BFD46
:10059300EC9AFCE899F80FD5F0DAE4CDFBE4CCFA59
:1005A300E4C8F922FAE6FB0808E6F925F0F618E6AE
:1005B300CA3AF622D083D082F8E49370127401937E
:1005C300700DA3A393F8740193F5828883E4737485
:1005D30002936860EFA3A3A380DF1208B2120D3762
:1005E30075C802C29643E340D2B4D2A6C295D2AF35
:1005F300120D47120BAD120A50120A4C120D6B7BEF
:10060300FF7A0C794C7F057E00120B83C294D2963D
:10061300D295120CEE8E368F37E4F538F539F53A6C
:10062300F53BF53CF53D7C037DE81204188C3E8DCB
:100633003FAE36AF377C037DE81204187C007D3C67
:100643001204188C3C8D3DAE36AF37E4FCFD7B6065
:100653007AEAF9F8120A577B3C120D558E3A8F3B12
:10066300AE36AF37E4FCFD7B807AEE7936F8120ABA
:10067300577B18120D558E388F397543FF75440C0F
:1006830075455C853846853947853A48853B4985B4
:100693003C4A853D4B853E4C853F4D7B007A007936
:1006A3002C1200D27B007A00792C7F287E00120B5B
:1006B30083C294E52B647F452A7003120D02052B38
:1006C300E52B7002052A0206158F538D548B55AB0B
:1006D30056AA57A9581203D2700302078EF559C3BD
:1006E300648094A04009D3E559648094FE40037567
:1006F3005920E554D394784002807CAF59EF339569
:10070300E0FE75F064E555A42FF582E5F03EF58330
:10071300E5822452F582E583340DF583E493F9E50C
:1007230054131313541F2553FDF8C000E6FA08E6CB
:10073300FBE5545407FCE47EFFA804088005CEC300
:1007430013CE13D8F9F4FFEEF45AFEEB5FD000A6F4
:100753000608F6A805C000E6FA08E6FBE9FEE4A8E9
:1007630004088005CEC313CE13D8F9FFEA4EFEEB7F
:100773004FD000A60608F674012558F558E43557FE
:10078300F55774062554F5540206D222C0E0C0F092
:10079300C083C082C0D075D000C000C001C002C0F9
:1007A30003C004C005C006C00775A720E5F854F0D0
:1007B300F4440F52F8AF9BEF30E34DE5126031E59F
:1007C300A120E02C300A13851682851583E5A3F05A
:1007D3000516E51670070515800385A327D5120DA9
:1007E300300C05300902D2FA120CDA800385121498
:1007F300E513601430F911300B09A817E2F5A305CE
:1008030017800375A3001513D007D006D005D004B5
:10081300D003D002D001D000D0D0D082D083D0F08A
:10082300D0E032787FE4F6D8FD75817802086D0256
:1008330005DDE493A3F8E493A34003F68001F208F3
:10084300DFF48029E493A3F85407240CC8C333C40A
:10085300540F4420C8834004F456800146F6DFE475
:10086300800B0102040810204080900B1EE47E01DF
:100873009360BCA3FF543F30E509541FFEE493A3E8
:1008830060010ECF54C025E060A840B8E493A3FAFA
:10089300E493A3F8E493A3C8C582C8CAC583CAF086
:1008A300A3C8C582C8CAC583CADFE9DEE780BE75AF
:1008B300A44075D43F75A57175F27775D58E75A66D
:1008C3004875A72075CC08E4F5A775E34075E102E8
:1008D30075E203F5A9E5A930E7FBE59154045391CB
:1008E300FB7595F87594067593F875920643910414
:1008F3004291C2DED2DE53F77F75DA4A75A20B430B
:10090300A14053F8F343F80175E68875A71075BB4A
:100913000CE4F5A775A86022C0E0C0F0C083C082D4
:10092300C0D075D000C000C001C002C003C004C065
:1009330005C006C00753C87F53C8FBE51AB40112AC
:10094300751A027F00851B267B02E4FDFC12097ADF
:10095300800AE51AB40305C2A6751A00D007D006AB
:10096300D005D004D003D002D001D000D0D0D082A3
:10097300D083D0F0D0E03285261285261385261445
:100983008F178C158D16EB13920AEBA2E1920BAF26
:10099300A775A720200D03120D16439A0453F80FD1
:1009A300539BEF439A08300C05300902C2FA30F921
:1009B30015E5136011300B09A817E2F5A30517809D
:1009C30003E4F5A315138FA7228E458F468C478D1D
:1009D300488B498A4A894BE4F54CF54DAB49AA4A01
:1009E300A94BAD4DAC4CAF46AE4512000EE54825C4
:1009F3004DFF7B007A007969120A9B054DE54D7026
:100A030002054CC39408E54C6480948040CE227F59
:100A13007D747D0000000000000000000000000065
:100A230000000000000000000000000000000000C3
:100A330000000000000000000000000000000000B3
:100A4300001470CF1FEF70C922120A12227597DEAD
:100A53007597AD22C2D5E830E70FB2D5E4C39BFB4F
:100A6300E49AFAE499F9E498F8EC30E717B2D5126E
:100A73000A8D120515E4C39BFBE49AFAE499F9E4A1
:100A830098F8800312051530D50DE4C39FFFE49E4B
:100A9300FEE49DFDE49CFC228F4E8B4F8A508951CE
:100AA3007F80120C708F52E54E04FF120B578F5349
:100AB300E4FFAB4FAA50A9518F827583001203EB59
:100AC300FE74542FF8A6060FBF10E7E4F564F5652E
:100AD300FB7A0079527D14020ADD8B668A67896886
:100AE300E51A70FC751A018D1BE4FFEFC39D5018C6
:100AF300AB66AA67A9688F827583001203EBFE7445
:100B0300002FF8EEF20F80E3AFA7E4F5A775CFFF50
:100B130075CEF4D2A643C8048FA7220218000001A1
:100B23001A00011B00021C0000C109C10CC10DC148
:100B33000AC10B0112000113000114000117000286
:100B4300150000C10E040C0000000002100000029A
:100B530008000000EF540FC454F0FEEF54F0C454E7
:100B63000F4EFF543325E025E0FEEF54CC1313540E
:100B73003F4EFF545525E0FEEF54AAC3134EFF2208
:100B83008E408F418B428A438944120C27C3748061
:100B93009FFFE49400FE7C007D0212046DAB42AA29
:100BA30043A944AD41AC400209CCD310AF01C3C04B
:100BB300D0120D3785880B85890AE58954CCF588D1
:100BC300E58954F04401F589120D61C20EC2A9D022
:100BD300D092AF22C0E0C0D0200E02801BE50F24CC
:100BE30001F50FE4350EF50EE4350DF50DE4350C86
:100BF300F50C85098C85118AD0D0D0E032EFB40A88
:100C030007740D120C0B740A309811A899B8130CC1
:100C1300C2983098FDA899C298B811F63099FDC2D0
:100C230099F599228B458A468947E4FFAB45AA4645
:100C3300A947AE070F8E827583001203EB70ED1F79
:100C4300EF75F006A42402FF2253746F707761746A
:100C530063682054696D657200253032643A25302B
:100C630032643A253032642E25303364008F6612A5
:100C73000CB0C3EF9519FDEE9518FCD3ED94C8ECB9
:100C8300940040074366408E188F19AF6622AB0766
:100C9300AA06120CB08F828E83120CB0C3EF95821A
:100CA300FFEE9583FEC3EF9BEE9A40ED22AFA7754F
:100CB300A71053E67FAD1DAC1C43E6808FA7AE049F
:100CC300AF0522E4F540E4FDAF401200360540E5F0
:100CD30040C3948040F022751A03AFA7E4F5A775CB
:100CE300CFFF75CEFC43C8048FA722D310AF01C337
:100CF300C0D0AF0FAE0EAD0DAC0CD0D092AF22A2D0
:100D0300A99200C2A985118A85098CA20092A91211
:100D13000D6122E5A1A2E6920CE5F8540C24FF92A2
:100D230009D20D22C0E053917F051DE51D70020518
:100D33001CD0E03275A950751000751101750800BB
:100D43007509FC22C2A6D2B47F0A7E00120C91025E
:100D53000CC6E4FAF9F8120A57AE02AF0322E4F51F
:100D63000FF50EF50DF50C22D20ED2A9D28C22006E
:100D730020505020C0606010400000000000007050
:100D83002070F810F830F870700000080080707060
:100D930070F070E0F8F8708870388880888870F098
:100DA30070F078F88888888888F870007020004090
:100DB30000800008003000802010806000000000E8
:100DC3000000004000000000000030206000000030
:100DD3000000000020505078C890202020202000E0
:100DE30000000088608810308040088888606010A8
:100DF30000408808888888908080888820109080A8
:100E0300D8888888888880208888888888084000CF
:100E130010500020008000080048788000008020E7
:100E2300000000000000004000000000000040201F
:100E330010400000000000002050F88010A0404047
:100E430010A820000000089820082050F080108887
:100E530088606020F82008088888808880808088DF
:100E63002010A080A8C88888888880208888885017
:100E7300881040801088001070B07068704088B08F
:100E830060309020D0B070F068B070E088888888B7
:100E930088F8402010A800000000000020005070D7
:100EA300204000401070F800F80010A820101090A7
:100EB30008F02070780000400010106888F08088E7
:100EC300F0F0B8F82010C080A8A888F088F070204F
:100ED3008888A820502040401000000008C880984F
:100EE30088E088C82010A020A8C8888898C88040B7
:100EF30088888850881080200810000000000000B7
:100F03000000F80840A8004010A82060000020C896
:100F1300202008F80888408808606020F82020A86E
:100F2300F8888088808088882010A08088988880AE
:100F3300A8A008208888A850204040201000000066
:100F430078888088F84078882010C020A88888F0A6
:100F5300788070408888A820782040201000000006
:100F630000000000000050F0989000202020202076
:100F730000604088204088108888408810602010D6
:100F8300004000A88888889080808888209090807E
:100F930088888880909008208850A88820804010F6
:100FA3001000000088888888804008882090A0204E
:100FB30088888880088008489850A85008404020B6
:100FC30010000000000000002000502018680010EE
:100FD300400000400060807070F8701070704070C6
:100FE300600040080080207088F070E0F88070880E
:100FF300706088F8888870806888F0207020508836
:1010030020F870087000FC0078F0707870407088E9
:1010130070609070888870800880F03068205088F5
:1010230070F83020600000000000000000000000A5
:1010330000000000000000000000000000000000AD
:10104300000000000000000000000000000000009D
:10105300000000000000000000000000000000008D
:10106300000000000000000000000000000000007D
:10107300000000000000000000000000000000006D
:10108300000000000000000000000000000000005D
:101093003810387C087C187C383800004430440809
:1010A30018402004444430004C10041028784008B1
:1010B300444430005410080848047810383C0000B9
:1010C300641010047C044420440430004410204481
:1010D300084444204408300038387C380838382025
:1010E3003830000000000000000000000000000095
:1010F30000000000000000000000000000000000ED
:1011030000000000000000000000000000000000DC
:10111300000000000000000000002010204020001C
:101123000000106C8282000000000000FE0000003E
:1011330000000082826C1000000022322A26220066
:1011430000003C0A0A0A300000002214081422009E
:1011530000003C020C023C0000003804020438008A
:1011630000003E0402023C000000040222FC2000B6
:101173000000042A2A2A12000000102020103E003A
:1011830000003E18282810000000102828283E00E0
:1011930000001C2222221C0000001E2020103E0002
:1011A30000001E2018203E0000000002FE82000006
:1011B300000000221408FE00000000BC220204000C
:1011C30000000002BE22000000001E202010FE00CE
:1011D30000007C4A4A4A300000004080907E1000A4
:1011E3000000182A2A2A1C000000FE1222221C00DA
:1011F3000000042222221C0000001C222212FE00F6
:1012030000001E2A2A2A040000000020408000005B
:101213000000020202020200000020408040200081
:10122300000000FE8282000000000204081020007B
:101233000000008282FE00000000C2A2928A8600A3
:101243000000E0100E10E0000000C6281028C600C1
:101253000000FC021C02FC000000F8040204F80079
:101263000000FC020202FC0000008080FE8080007F
:1012730000008C9292926200000062949890FE00AB
:1012830000007A848A827C00000060909090FE00C7
:1012930000007C8282827C000000FE081020FE0099
:1012A3000000FE403040FE00000002020202FE0089
:1012B300000082442810FE00000080FC820204002B
:1012C30000000082FE8200000000FE101010FE00ED
:1012D30000005C9292827C00000080909090FE005F
:1012E300000082929292FE00000038448282FE0047
:1012F3000000448282827C0000006C929292FE0085
:1013030000007E8888887E0000007C829E920C000C
:10131300000060908A804000000000102844820092
:1013230000002828282828000000824428100000F4
:10133300000000006C6A0000000000006C6C0000FC
:10134300000078949292600000006C9292926C007C
:101353000000C0A0908E800000000C9292523C00CE
:1013630000009CA2A2A2E400000008FE4828180086
:1013730000008CD2A2828400000062928A8642001E
:1013830000000002FE42000000007CA2928A7C0062
:101393000000201008040200000000000606000000
:1013A3000000101010101000000000000C0A0000D4
:1013B300000010107C101000000028107C10280082
:1013C300000000384482000000000082443800001E
:1013D30000000000C0A0000000000A44AA926C00B4
:1013E3000000462610C8C40000004854D654240008
:1013F300000028FE28FE2800000000E000E00000B6
:0F14030000000000F200000000000000000000E8
:00000001FF
