:020000040000FA
:100000000201D097DE7597ADD2AF8F41120578C34C
:10001000EF9519FDEE9518FCD3ED94C8EC940040D3
:10002000074341408E188F19AF41220203415445C6
:100030005354000201398F2A8D2BE52B6005752B57
:10004000FF8003E4F52B7F8012000A8F2CE52A0441
:10005000FF12054C8F2DE4FF742E2FF8A62B0FBF37
:1000600010F6E4F53EF53FFB7A00792C7D1402048E
:01007000D2BD
:100073000205C78F298D2A8B2BAB2CAA2DA92E12F3
:1000830003A07003020138F52FC3648094A04009D4
:10009300D3E52F648094FE4003752F20E52AD39483
:1000A300784002807CAF2FEF3395E0FE75F064E576
:1000B3002BA42FF582E5F03EF583E58224CEF5826D
:1000C300E5833405F583E493F9E52A131313541FE9
:1000D3002529FDF8C000E6FA08E6FBE52A5407FCEB
:1000E300E47EFFA804088005CEC313CE13D8F9F429
:1000F300FFEEF45AFEEB5FD000A60608F6A805C093
:1001030000E6FA08E6FBE9FEE4A804088005CEC38E
:1001130013CE13D8F9FFEA4EFEEB4FD000A6060824
:10012300F67401252EF52EE4352DF52D7406252ABA
:10013300F52A02007C22C0E0C0F0C083C082C0D098
:1001430075D000C000C001C002C003C004C005C018
:1001530006C00775A720E5F854F0F4440F52F8AF32
:100163009BEF30E34DE5126031E5A120E02C300137
:1001730013851682851583E5A3F00516E51670072A
:100183000515800385A326D5120D30030530000223
:10019300D2FA1205A28003851214E513601430F914
:1001A30011300209A817E2F5A30517800375A30010
:1001B3001513D007D006D005D004D003D002D00148
:1001C300D000D0D0D082D083D0F0D0E032787FE49A
:1001D300F6D8FD75815302021702025CE493A3F87B
:1001E300E493A34003F68001F208DFF48029E4934B
:1001F300A3F85407240CC8C333C4540F4420C88342
:100203004004F456800146F6DFE4800B0102040843
:1002130010204080900513E47E019360BCA3FF543B
:100223003F30E509541FFEE493A360010ECF54C091
:1002330025E060A840B8E493A3FAE493A3F8E49319
:10024300A3C8C582C8CAC583CAF0A3C8C582C8CA21
:10025300C583CADFE9DEE780BE1202D81205D7756F
:10026300C802C29643E340D2B4D2A6C295D2AF121B
:1002730005E7120489E4F527F5287F44AB28752C9C
:10028300FF752D00752E2E7D03120076E5282404BC
:10029300FF7B007A0079441204900528E528700258
:1002A3000527C39408E5276480948040CDC294D287
:1002B30096D295E4FFFE0FBF00010EBE13F8BF8870
:1002C300F5D294E4FEFF0FBF00010EBE13F8BF8802
:1002D300F5C29480DE75A44075D43F75A57175F29F
:1002E3007775D58E75A64875A72075CC08E4F5A754
:1002F30075E34075E10275E203F5A9E5A930E7FB73
:10030300E59154045391FB7595F87594067593F82C
:100313007592064391044291C2DED2DE53F77F7594
:10032300DA4A75A20B43A14053F8F343F80175E68B
:100333008875A71075BB0CE4F5A775A86022C0E00B
:10034300C0F0C083C082C0D075D000C000C001C05F
:1003530002C003C004C005C006C00753C87F53C80A
:10036300FBE51AB40112751A027F00851B257B0277
:10037300E4FDFC1203F9800AE51AB40305C2A6756D
:100383001A00D007D006D005D004D003D002D00184
:10039300D000D0D0D082D083D0F0D0E032BB0106E1
:1003A30089828A83E0225002E722BBFE02E322898C
:1003B300828A83E49322BB010CE58229F582E583DB
:1003C3003AF583E0225006E92582F8E622BBFE06D1
:1003D300E92582F8E222E58229F582E5833AF5836D
:1003E300E49322E8600FECC313FCED13FDEE13FE60
:1003F300EF13FFD8F1228525128525138525148F48
:10040300178C158D16EB139201EBA2E19202AFA7A5
:1004130075A7202004031205B6439A0453F80F531B
:100423009BEF439A08300305300002C2FA30F915F6
:10043300E5136011300209A817E2F5A3051780033D
:10044300E4F5A315138FA7227F7D747D00000000C0
:100453000000000000000000000000000000000099
:100463000000000000000000000000000000000089
:10047300000000000000000000001470CF1FEF70A8
:10048300C92212044B227597DE7597AD228F298BF3
:100493002A8A2B892C7F8012000A8F2DE52904FFDD
:1004A30012054C8F2EE4FFAB2AAA2BA92C8F827541
:1004B30083001203B9FE742F2FF8A6060FBF10E7AF
:1004C300E4F53FF540FB7A00792D7D140204D28BCD
:1004D300418A428943E51A70FC751A018D1BE4FFBA
:1004E300EFC39D5018AB41AA42A9438F8275830085
:1004F3001203B9FE74002FF8EEF20F80E3AFA7E406
:10050300F5A775CFFF75CEF4D2A643C8048FA722F3
:1005130002180000011A00011B00021C0000C100A8
:10052300C103C104C101C10201120001130001147E
:100533000001170002150000C105040C00000000B3
:10054300021000000208000000EF540FC454F0FE34
:10055300EF54F0C4540F4EFF543325E025E0FEEF73
:1005630054CC1313543F4EFF545525E0FEEF54AAC9
:10057300C3134EFF22AFA775A71053E67FAD1DAC83
:100583001C43E6808FA7AE04AF0522E4F529E4FD02
:10059300AF291200360529E529C3948040F022755E
:1005A3001A03AFA7E4F5A775CFFF75CEFC43C804C4
:1005B3008FA722E5A1A2E69203E5F8540C24FF924B
:1005C30000D20422C0E053917F051DE51D70020592
:1005D3001CD0E03275A95075100075110175080023
:1005E3007509FC22C2A6D2B402058E002050502009
:1005F300C060601040000000000000702070F81020
:10060300F830F870700000080080707070F070E0CF
:10061300F8F8708870388880888870F070F078F8FF
:100623008888888888F8700070200040008000085F
:1006330000300080201080600000000000000040B7
:1006430000000000000030206000000000000000F7
:1006530020505078C89020202020200000000088DF
:1006630060881030804008888860601000408808E7
:10067300888888908080888820109080D88888888F
:100683008888802088888888880840001050002047
:1006930000800008004878800000802000000000EF
:1006A3000000004000000000000040201040000057
:1006B300000000002050F88010A0404010A8200047
:1006C3000000089820082050F0801088886060207F
:1006D300F820080888888088808080882010A0807F
:1006E300A8C8888888888020888888508810408097
:1006F3001088001070B07068704088B0603090202F
:10070300D0B070F068B070E08888888888F840209E
:1007130010A800000000000020005070204000409E
:100723001070F800F80010A82010109008F0207046
:10073300780000400010106888F08088F0F0B8F866
:100743002010C080A8A888F088F070208888A8208E
:10075300502040401000000008C8809888E088C8F6
:100763002010A020A8C8888898C88040888888500E
:100773008810802008100000000000000000F80826
:1007830040A8004010A82060000020C8202008F8DE
:100793000888408808606020F82020A8F8888088AE
:1007A300808088882010A08088988880A8A008204E
:1007B3008888A85020404020100000007888808856
:1007C300F84078882010C020A88888F0788070408E
:1007D3008888A82078204020100000000000000036
:1007E300000050F0989000202020202000604088D6
:1007F300204088108888408810602010004000A89E
:1008030088888890808088882090908088888880D5
:10081300909008208850A888208040101000000085
:1008230088888888804008882090A02088888880CD
:10083300088008489850A850084040201000000045
:100843000000000020005020186800104000004005
:100853000060807070F87010707040706000400825
:100863000080207088F070E0F8807088706088F8ED
:10087300888870806888F0207020508820F870087D
:100883007000FC0078F07078704070887060907031
:10089300888870800880F0306820508870F8302095
:1008A30060000000000000000000000000000000E5
:1008B3000000000000000000000000000000000035
:1008C3000000000000000000000000000000000025
:1008D3000000000000000000000000000000000015
:1008E3000000000000000000000000000000000005
:1008F30000000000000000000000000000000000F5
:100903000000000000000000000000003810387CE8
:10091300087C187C38380000443044081840200410
:10092300444430004C1004102878400844443000FC
:100933005410080848047810383C00006410100470
:100943007C044420440430004410204408444420E0
:100953004408300038387C380838382038300000F4
:100963000000000000000000000000000000000084
:100973000000000000000000000000000000000074
:100983000000000000000000000000000000000064
:100993000000000000002010204020000000106C28
:1009A3008282000000000000FE00000000000082C0
:1009B300826C1000000022322A26220000003C0A2A
:1009C3000A0A3000000022140814220000003C022E
:1009D3000C023C00000038040204380000003E040E
:1009E30002023C000000040222FC20000000042A52
:1009F3002A2A12000000102020103E0000003E189A
:100A0300282810000000102828283E0000001C227F
:100A130022221C0000001E2020103E0000001E2089
:100A230018203E0000000002FE82000000000022A9
:100A33001408FE00000000BC2202040000000002B3
:100A4300BE22000000001E202010FE0000007C4A91
:100A53004A4A300000004080907E10000000182AAF
:100A63002A2A1C000000FE1222221C00000004227D
:100A730022221C0000001C222212FE0000001E2A5B
:100A83002A2A040000000020408000000000020227
:100A9300020202000000204080402000000000FE0F
:100AA300828200000000020408102000000000827F
:100AB30082FE00000000C2A2928A86000000E010BD
:100AC3000E10E0000000C6281028C6000000FC023B
:100AD3001C02FC000000F8040204F8000000FC0201
:100AE3000202FC0000008080FE80800000008C92E7
:100AF30092926200000062949890FE0000007A8453
:100B03008A827C00000060909090FE0000007C824E
:100B130082827C000000FE081020FE000000FE40E0
:100B23003040FE00000002020202FE000000824488
:100B33002810FE00000080FC8202040000000082F6
:100B4300FE8200000000FE101010FE0000005C9208
:100B530092827C00000080909090FE0000008292C0
:100B63009292FE00000038448282FE00000044821C
:100B730082827C0000006C929292FE0000007E88CC
:100B830088887E0000007C829E920C0000006090AA
:100B93008A804000000000102844820000002828BA
:100BA30028282800000082442810000000000000CC
:100BB3006C6A0000000000006C6C00000000789478
:100BC3009292600000006C9292926C000000C0A0B0
:100BD300908E800000000C9292523C0000009CA278
:100BE300A2A2E400000008FE4828180000008CD2EE
:100BF300A2828400000062928A8642000000000202
:100C0300FE42000000007CA2928A7C0000002010BB
:100C13000804020000000000060600000000101097
:100C230010101000000000000C0A0000000010105B
:100C33007C101000000028107C10280000000038F1
:100C430044820000000000824438000000000000DD
:100C5300C0A0000000000A44AA926C0000004626CF
:100C630010C8C40000004854D6542400000028FED5
:100C730028FE2800000000E000E000000000000063
:0B0C8300F20000000000000000000074
:00000001FF
