:020000040000FA
:0A0000000209E597DE7597ADD2AF57
:10000B00020DCA8B4BAE05AD077F67AB06120E60B8
:10001B007B007A007967AF4B120C837F67020FB5B9
:03002B00020ADFE7
:1000330002094E8F408D41E54160057541FF800304
:10004300E4F5417F80120E3F8F42E54004FF120D1D
:100053009E8F43E4FF74442FF8A6410FBF10F6E4CC
:0E006300F554F555FB7A0079427D14020CC568
:10007300020F7EE54E2442F8E6054E22783F300912
:10008300027842E475F0011207BA02062C2002EB53
:100093007F2ED2028018EF540F2490D43440D4FF23
:1000A30030060BEF24BFB41A0050032461FFE54F61
:1000B3006002154F0552E5527002055130090D7863
:1000C3003FE475F0011207BAEF0206DA020DF3748A
:1000D30003D2098003E4C209F54E8B3F8A4089416C
:1000E300E4F54FF551F552E54F60077F201200B15B
:1000F30080F57550FFC203C202C204C205C207C223
:1001030008C20A12007FFF700D3009057F0012003C
:10011300C2AF52AE5122B4255FC2D5C20612007FD0
:10012300FF24D0B40A00501A75F00A784F30D50571
:1001330008B6FF0106C6A426F620D5047002D20530
:1001430080D924CFB41A00EF5004C2E5D2060202CC
:10015300C2D20380C6D20280C0D20480BCD2D58072
:10016300BAD20780B47F201200B12004077401B50E
:100173004F0040F1120076FF1200B10200EAD20AEA
:10018300D2088095120076FB120076FA120076F9F7
:100193004A4B700679937A037BFF20042EE54F6068
:1001A3002A7E008E8275830012064560060EEE6578
:1001B3005070F0C2D5EBC0E0EAC0E0E9C0E0EE1257
:1001C3000309D0E0F9D0E0FAD0E0FB12062CFF607F
:1001D300AAEBC0E0EAC0E0E9C0E01200B1D0E0243D
:1001E30001F9D0E03400FAD0E0FBE5500460DCD53F
:1001F30050D980877BFF7A037905D204809C7910DC
:1002030080027908C208C20A8008D2D5790A80041C
:10021300790AC2D5E550047002F550E4FAFDFEFFF9
:10022300120076FC7B08200313120076FD7B10304E
:10023300020A120076FE120076FF7B20EC3382D591
:1002430092D55013C3E43002069FFFE49EFEE420E0
:1002530003039DFDE49CFCE4CBF8C203EC700CCFDC
:10026300CECDCCE824F8F870F38017C3EF33FFEE5C
:1002730033FEED33FDEC33FCEB33FB994002FB0F14
:10028300D8E9EB300305F8D0E0C448B203C0E00A74
:10029300EC4D4E4F78207B0070C2EAB5500040BC55
:1002A300C0E012030BD0F0D0E0200304C4C0E0C4CC
:1002B300B203C0F012009AD0F0D5F0EB0200EA12BC
:1002C30007CA01875302015801584C0154420205E1
:1002D3004F020D44020D49016D4302135501F746C8
:1002E30001F74501F74703B350015C2D01602E016F
:1002F300832B016423018120039C2A011C480000F5
:10030300017B3F3F3F00790AA2D52005143007093E
:10031300B910020404B9080104A2D520080250014F
:10032300042004689204B54F005034C0E07F2030AD
:1003330005197F30A20472087207500F120362C2BC
:1003430004C208C207C20A7F30800F300703E9C026
:10035300E01200B1300703D0E0F9D0E0B54FCC3064
:1003630007177F30B9100C1200B17F583006077F92
:10037300788003B908031200B13004057F2D020011
:10038300B17F20200AF87F2B2008F322920480CF2C
:10039300286E756C6C2900D2031200763003F8C204
:1003A30003784F30D50108F602011C2D50434958FC
:1003B3001200762403B405004001E49003AE9312C7
:1003C30000A2743A1200A2D205754F04020201E49E
:1003D300F53C120A71120F9C75C802D2AF120F8E30
:1003E3007BFF7A0879B37D017F2E120D6F7BFF7A35
:1003F3000879C3E4FD7F40120D6F7BFF7A0879D340
:10040300E4FD7F4A120D6F120B7E120F1F120D3F78
:10041300120B947BFF7A0879B37D017F05120D6F70
:100423007B197D737F0C12000E7B357D737F0C125D
:10043300000E7BFF7A0879DEE4FD7F3C120D6FE44A
:10044300F536F537F538F539F53AF53B120E9E8E4C
:100453003D8F3E120EBBC007C006AF3EAE3D120F2E
:100463005AC007C006AF3EAE3D120F47C007C006D5
:10047300AF3EAE3D120FA98E4B8F4CD049D04AD020
:1004830047D048D045D0467542FF7543087544ECC4
:100493007B007A0079291200D27B007A007929E463
:1004A300FD7F23120D6FAF37AE36120EBBC007C0F0
:1004B30006AF37AE36120F5AC007C006AF37AE3697
:1004C300120F47C007C006AF37AE36120FA98E4BC7
:1004D3008F4CD049D04AD047D048D045D0467542FA
:1004E300FF7543087544FE7B007A0079291200D218
:1004F3007B007A007929E4FD7F4B120D6FAF39AE93
:1005030038120EBBC007C006AF39AE38120F5AC03F
:1005130007C006AF39AE38120F47C007C006AF3960
:10052300AE38120FA98E4B8F4CD049D04AD047D04A
:1005330048D045D0467542FF7543097544137B0087
:100543007A0079291200D27B007A007929E4FD7FB1
:100553005A120D6FAF3BAE3A120EBBC007C006AFC7
:100563003BAE3A120F5AC007C006AF3BAE3A120F6A
:1005730047C007C006AF3BAE3A120FA98E4B8F4C54
:10058300D049D04AD047D048D045D0467542FF75B0
:1005930043097544287B007A0079291200D27B0035
:1005A3007A007929E4FD7F69120D6F20821A2000F9
:1005B30012E53C7008120FCF753C018006120FC87C
:1005C300E4F53CD20002044F208357C20020014DC2
:1005D300E53C7012120EEFE4F536F537F538F539D0
:1005E300F53AF53B8037E53745367008853D368566
:1005F3003E378029E53945387008853D38853E39D1
:10060300801BE53B453A7008853D3A853E3B800DAE
:100613007BFF7A09793DE4FD7F78120D6FD20102E9
:10062300044FC200C20102044FBB010689828A83C0
:10063300E0225002E722BBFE02E32289828A83E49E
:100643009322BB010CE58229F582E5833AF583E029
:10065300225006E92582F8E622BBFE06E92582F848
:10066300E222E58229F582E5833AF583E49322BC0D
:10067300000BBE0029EF8DF084FFADF022E4CCF82F
:1006830075F008EF2FFFEE33FEEC33FCEE9DEC9894
:100693004005FCEE9DFE0FD5F0E9E4CEFD22EDF81A
:1006A300F5F0EE8420D21CFEADF075F008EF2FFFBD
:1006B300ED33FD4007985006D5F0F222C398FD0FA5
:1006C300D5F0EA22E8600FECC313FCED13FDEE1343
:1006D300FEEF13FFD8F122BB010689828A83F02241
:1006E3005002F722BBFE01F32275F008758200EF7A
:1006F3002FFFEE33FECD33CDCC33CCC58233C58251
:100703009BED9AEC99E58298400CF582EE9BFEED09
:100713009AFDEC99FC0FD5F0D6E4CEFBE4CDFAE4D8
:10072300CCF9A88222B800C1B90059BA002DEC8BCC
:10073300F084CFCECDFCE5F0CBF97818EF2FFFEEA8
:1007430033FEED33FDEC33FCEB33FB10D703994061
:1007530004EB99FB0FD8E5E4F9FA227818EF2FFFA1
:10076300EE33FEED33FDEC33FCC933C910D7059BE3
:10077300E99A4007EC9BFCE99AF90FD8E0E4C9FA3F
:10078300E4CCFB2275F010EF2FFFEE33FEED33FDCB
:10079300CC33CCC833C810D7079BEC9AE899400AEE
:1007A300ED9BFDEC9AFCE899F80FD5F0DAE4CDFB6C
:1007B300E4CCFAE4C8F922FAE6FB0808E6F925F0E6
:1007C300F618E6CA3AF622D083D082F8E493701280
:1007D300740193700DA3A393F8740193F582888336
:1007E300E4737402936860EFA3A3A380DF8F4B8D40
:1007F3004C8B4DAB4EAA4FA95012062C7003020826
:10080300B2F551C3648094A04009D3E55164809448
:10081300FE4003755120E54CD394784002807CAFB1
:1008230051EF3395E0FE75F064E54DA42FF582E5B5
:10083300F03EF583E58224B5F582E583340FF58335
:10084300E493F9E54C131313541F254BFDF8C00033
:10085300E6FA08E6FBE54C5407FCE47EFFA804082F
:100863008005CEC313CE13D8F9F4FFEEF45AFEEB92
:100873005FD000A60608F6A805C000E6FA08E6FB66
:10088300E9FEE4A804088005CEC313CE13D8F9FF0C
:10089300EA4EFEEB4FD000A60608F674012550F58C
:1008A30050E4354FF54F7406254CF54C0207F622FC
:1008B30053746F7077617463682054696D65720057
:1008C300416E6472657920416B686D65746F760063
:1008D30052616669204D7565656E004C617009094A
:1008E3000909090954696D6500253032643A2530D8
:1008F30032643A253032642E256400313A092530BA
:1009030032643A253032643A253032642E2564004D
:10091300323A09253032643A253032643A2530328E
:10092300642E256400333A09253032643A25303287
:10093300643A253032642E256400465047417320C3
:100943006172652062657474657200C0E0C0F0C0B6
:1009530083C082C0D075D000C000C001C002C003F4
:10096300C004C005C006C00775A720E5F854F0F41D
:10097300440F52F8AF9BEF30E34DE5126031E5A130
:1009830020E02C300C13851682851583E5A3F00532
:1009930016E51670070515800385A328D5120D30BB
:1009A3000E05300B02D2FA120F338003851214E5C1
:1009B30013601430F911300D09A817E2F5A30517D8
:1009C300800375A3001513D007D006D005D004D03B
:1009D30003D002D001D000D0D0D082D083D0F0D0C9
:1009E300E032787FE4F6D8FD758176020A2C0203A3
:1009F300D2E493A3F8E493A34003F68001F208DF63
:100A0300F48029E493A3F85407240CC8C333C454D3
:100A13000F4420C8834004F456800146F6DFE48087
:100A23000B0102040810204080900D06E47E019320
:100A330060BCA3FF543F30E509541FFEE493A36059
:100A4300010ECF54C025E060A840B8E493A3FAE4B4
:100A530093A3F8E493A3C8C582C8CAC583CAF0A305
:100A6300C8C582C8CAC583CADFE9DEE780BE75A4EC
:100A73004075D43FE4F59075A57175F27775D5FE91
:100A830075ED7075A64875A72075CC08F5A775E3B5
:100A93004075E10275E203F5A9E5A930E7FBE591AD
:100AA30054045391FB7595F87594067593F87592F4
:100AB300064391044291C2DED2DE53F77F75DA4AD0
:100AC30075A20B43A14053F8F343F80175E688750B
:100AD300A71075BB0CE4F5A775A86022C0E0C0F0B1
:100AE300C083C082C0D075D000C000C001C002C0A6
:100AF30003C004C005C006C00753C87F53C8FBE545
:100B03001AB40112751A027F00851B277B02E4FDCC
:100B1300FC120BED800AE51AB40305C2A6751A0090
:100B2300D007D006D005D004D003D002D001D00026
:100B3300D0D0D082D083D0F0D0E0327E0A7F7D74D3
:100B43007D00000000000000000000000000000025
:100B53000000000000000000000000000000000092
:100B6300000000000000000000000000000000146E
:100B730070CF1FEF70C91EEE70C322C296D295D2FA
:100B830094120B3EC294120B3ED296120B3ED29499
:100B9300227597DE7597AD228F448D458B46E4F51C
:100BA3004A7F6785474E85484F854950AB4AAD44D8
:100BB3001207F0E545254AFF7B007A007967120C9E
:100BC30083054AE54AC3940840D7E5466017AB4717
:100BD300AA48A949120E1AE5442FFDE5452408FB4E
:100BE300AF4412000E7F67020FB5852712852713C6
:100BF3008527148F178C158D16EB13920CEBA2E13E
:100C0300920DAFA775A720200F03120F6D439A040F
:100C130053F80F539BEF439A08300E05300B02C273
:100C2300FA30F915E5136011300D09A817E2F5A3A1
:100C330005178003E4F5A315138FA722C2D5E83067
:100C4300E70FB2D5E4C39BFBE49AFAE499F9E4987D
:100C5300F8EC30E717B2D5120C75120728E4C39BE2
:100C6300FBE49AFAE499F9E498F880031207283030
:100C7300D50DE4C39FFFE49EFEE49DFDE49CFC22AE
:100C83008F4C8B4D8A4E894F7F80120E3F8F50E5DC
:100C93004C04FF120D9E8F51E4FFAB4DAA4EA94F9A
:100CA3008F82758300120645FE74522FF8A6060F35
:100CB300BF10E7E4F562F563FB7A0079507D140217
:100CC3000CC58B648A658966E51A70FC751A018DFB
:100CD3001BE4FFEFC39D5018AB64AA65A9668F821E
:100CE300758300120645FE74002FF8EEF20F80E3C1
:100CF300AFA7E4F5A775CFFF75CEF4D2A643C8041A
:100D03008FA72202180000011A00011B00021C0019
:100D130000C10BC10EC10FC10CC10D0112000113A3
:100D23000001140001170002150000C110040C009B
:100D3300000000021000000208000000D310AF0101
:100D4300C3C0D0120F9C85880B85890AE58954CCD2
:100D5300F588E58954F04401F589E4F50FF50EF5BE
:100D63000DF50CC210C2A9D0D092AF228F3F8D4097
:100D73008B418A428943120E1AC374809FFFE49405
:100D830000C313EF13FF854147854248854349ABB1
:100D930040AD3F120B9B7F67020FB5EF540FC45456
:100DA300F0FEEF54F0C4540F4EFF543325E025E01A
:100DB300FEEF54CC1313543F4EFF545525E0FEEF82
:100DC30054AAC3134EFF22C0E0C0D0201002801BE0
:100DD300E50F2401F50FE4350EF50EE4350DF50DA1
:100DE300E4350CF50C85098C85118AD0D0D0E0321E
:100DF300EFB40A07740D120DFE740A309811A89906
:100E0300B8130CC2983098FDA899C298B811F6305F
:100E130099FDC299F599228B4B8A4C894DE4FFAB1E
:100E23004BAA4CA94DAE070F8E827583001206455F
:100E330070ED1FEF75F006A42402FF228F64120FDA
:100E430009C3EF9519FDEE9518FCD3ED94C8EC9406
:100E53000040074364408E188F19AF6422AE07ED3C
:100E6300D39B4006AF03AB05AD07AC05ECD39B505A
:100E73000AAF06AD04120ED50C80F122AB07AA0609
:100E8300120F098F828E83120F09C3EF9582FFEE33
:100E93009583FEC3EF9BEE9A40ED22D310AF01C3BF
:100EA300C0D0E47B08FAF9F8AF0FAE0EAD0DAC0C71
:100EB300120C3FD0D092AF22E4FCFD7BA07A8CF9D8
:100EC300F8120C3FE47B18FAF9F8120C3FAE02AFAC
:100ED3000322ED131313541F2FF9ED5407FF7480EE
:100EE300A807088002C313D8FC47F722A2A99202DD
:100EF300C2A985118A85098CA20292A9E4F50FF58E
:100F03000EF50DF50C22AFA775A71053E67FAD1DA7
:100F1300AC1C43E6808FA7AE04AF0522E4F53FE4A3
:100F2300FDAF3F120036053FE53FC3948040F022FA
:100F3300751A03AFA7E4F5A775CFFF75CEFC43C8B9
:100F4300048FA7227C007D0A1206727C007D3C126E
:100F53000672AE04AF05227C027D581206727C0035
:100F63007D3C120672AE04AF0522E5A1A2E6920E05
:100F7300E5F8540C24FF920BD20F22C0E053917F6B
:100F8300051DE51D7002051CD0E032C2A6D2B47F58
:100F93000A7E00120E7F020F1F7510007511017576
:100FA300080075099B227C007D0A120672AE04AF0D
:100FB3000522E4FEEF2EF8E4F60EBE10F722D2105F
:100FC300D2A9D28C22C210C2A9C28C22120B7E02D9
:100FD3000FC10020505020C060601040000000008E
:100FE3000000702070F810F830F8707000000800EE
:100FF30080707070F070E0F8F870887038888088BE
:101003008870F070F078F88888888888F8700070A5
:101013002000400080000800300080201080600025
:1010230000000000000040000000000000302060CD
:101033000000000000000020505078C890202020BD
:1010430020200000000088608810308040088888D5
:101053006060100040880888888890808088882095
:10106300109080D888888888888020888888888895
:1010730008400010500020008000080048788000DD
:10108300008020000000000000004000000000007D
:1010930000402010400000000000002050F88010A5
:1010A300A0404010A820000000089820082050F01D
:1010B30080108888606020F82008088888808880ED
:1010C3008080882010A080A8C8888888888020888D
:1010D300888850881040801088001070B070687045
:1010E3004088B060309020D0B070F068B070E08875
:1010F30088888888F8402010A8000000000000209D
:10110300005070204000401070F800F80010A82034
:1011130010109008F02070780000400010106888CC
:10112300F08088F0F0B8F82010C080A8A888F08874
:10113300F070208888A8205020404010000000084C
:10114300C8809888E088C82010A020A8C8888898FC
:10115300C8804088888850881080200810000000CC
:101163000000000000F80840A8004010A82060001C
:101173000020C8202008F80888408808606020F80C
:101183002020A8F8888088808088882010A0808804
:10119300988880A8A008208888A850204040201064
:1011A30000000078888088F84078882010C020A844
:1011B3008888F0788070408888A8207820402010A4
:1011C30000000000000000000050F0989000202074
:1011D30020202000604088204088108888408810A4
:1011E300602010004000A88888889080808888202C
:1011F30090908088888880909008208850A88820C4
:10120300804010100000008888888880400888206B
:1012130090A02088888880088008489850A85008A3
:101223004040201000000000000000200050201863
:10123300680010400000400060807070F87010700B
:10124300704070600040080080207088F070E0F803
:10125300807088706088F8888870806888F0207053
:1012630020508820F870087000FC0078F0707870C7
:1012730040708870609070888870800880F0306853
:1012830020508870F830206000000000000000004B
:10129300000000000000000000000000000000004B
:1012A300000000000000000000000000000000003B
:1012B300000000000000000000000000000000002B
:1012C300000000000000000000000000000000001B
:1012D300000000000000000000000000000000000B
:1012E30000000000000000000000000000000000FB
:1012F3000000003810387C087C187C383800004423
:1013030030440818402004444430004C1004102892
:1013130078400844443000541008084804781038D2
:101323003C0000641010047C044420440430004456
:10133300102044084444204408300038387C3808DE
:1013430038382038300000000000000000000000A2
:10135300000000000000000000000000000000008A
:10136300000000000000000000000000000000007A
:10137300000000000000000000000000002010201A
:101383004020000000106C8282000000000000FE7C
:1013930000000000000082826C1000000022322A4C
:1013A30026220000003C0A0A0A300000002214082A
:1013B30014220000003C020C023C0000003804022E
:1013C30004380000003E0402023C00000004022234
:1013D300FC20000000042A2A2A120000001020200A
:1013E300103E0000003E1828281000000010282896
:1013F300283E0000001C2222221C0000001E202088
:10140300103E0000001E2018203E0000000002FED7
:10141300820000000000221408FE00000000BC222D
:1014230002040000000002BE22000000001E202073
:1014330010FE0000007C4A4A4A30000000408090C1
:101443007E10000000182A2A2A1C000000FE122227
:10145300221C000000042222221C0000001C222265
:1014630012FE0000001E2A2A2A0400000000204069
:1014730080000000000202020202000000204080FF
:10148300402000000000FE828200000000020408E9
:101493001020000000008282FE00000000C2A29221
:1014A3008A86000000E0100E10E0000000C628103D
:1014B30028C6000000FC021C02FC000000F8040225
:1014C30004F8000000FC020202FC0000008080FE21
:1014D30080800000008C92929262000000629498D7
:1014E30090FE0000007A848A827C00000060909065
:1014F30090FE0000007C8282827C000000FE0810C7
:1015030020FE000000FE403040FE00000002020208
:1015130002FE00000082442810FE00000080FC82CE
:1015230002040000000082FE8200000000FE101092
:1015330010FE0000005C9292827C0000008090907C
:1015430090FE00000082929292FE000000384482D6
:1015530082FE000000448282827C0000006C929232
:1015630092FE0000007E8888887E0000007C829EB8
:10157300920C00000060908A804000000000102858
:1015830044820000002828282828000000824428DC
:10159300100000000000006C6A0000000000006CF6
:1015A3006C0000000078949292600000006C9292AC
:1015B300926C000000C0A0908E800000000C9292FC
:1015C300523C0000009CA2A2A2E400000008FE48D6
:1015D30028180000008CD2A2828400000062928A44
:1015E30086420000000002FE42000000007CA2923E
:1015F3008A7C00000020100804020000000000069E
:101603000600000000101010101000000000000C75
:101613000A0000000010107C101000000028107C4D
:1016230010280000000038448200000000008244BB
:1016330038000000000000C0A0000000000A44AA17
:10164300926C000000462610C8C40000004854D61F
:10165300542400000028FE28FE2800000000E000BB
:10166300E0000000000000F20000000000000000A5
:02167300000075
:00000001FF
